{
  "_format": "hh-sol-artifact-1",
  "contractName": "Twitter",
  "sourceName": "contracts/twitter-q1.sol",
  "abi": [
    {
      "inputs": [],
      "name": "nextTweetId",
      "outputs": [
        {
          "internalType": "uint256",
          "name": "",
          "type": "uint256"
        }
      ],
      "stateMutability": "view",
      "type": "function"
    },
    {
      "inputs": [
        {
          "internalType": "string",
          "name": "_content",
          "type": "string"
        }
      ],
      "name": "postTweet",
      "outputs": [],
      "stateMutability": "nonpayable",
      "type": "function"
    },
    {
      "inputs": [
        {
          "internalType": "address",
          "name": "_user",
          "type": "address"
        }
      ],
      "name": "readTweets",
      "outputs": [
        {
          "components": [
            {
              "internalType": "uint256",
              "name": "tweetId",
              "type": "uint256"
            },
            {
              "internalType": "address",
              "name": "author",
              "type": "address"
            },
            {
              "internalType": "string",
              "name": "content",
              "type": "string"
            },
            {
              "internalType": "uint256",
              "name": "createdAt",
              "type": "uint256"
            }
          ],
          "internalType": "struct Twitter.Tweet[]",
          "name": "",
          "type": "tuple[]"
        }
      ],
      "stateMutability": "view",
      "type": "function"
    },
    {
      "inputs": [
        {
          "internalType": "string",
          "name": "_name",
          "type": "string"
        }
      ],
      "name": "registerAccount",
      "outputs": [],
      "stateMutability": "nonpayable",
      "type": "function"
    },
    {
      "inputs": [
        {
          "internalType": "uint256",
          "name": "",
          "type": "uint256"
        }
      ],
      "name": "tweets",
      "outputs": [
        {
          "internalType": "uint256",
          "name": "tweetId",
          "type": "uint256"
        },
        {
          "internalType": "address",
          "name": "author",
          "type": "address"
        },
        {
          "internalType": "string",
          "name": "content",
          "type": "string"
        },
        {
          "internalType": "uint256",
          "name": "createdAt",
          "type": "uint256"
        }
      ],
      "stateMutability": "view",
      "type": "function"
    },
    {
      "inputs": [
        {
          "internalType": "address",
          "name": "",
          "type": "address"
        }
      ],
      "name": "users",
      "outputs": [
        {
          "internalType": "address",
          "name": "wallet",
          "type": "address"
        },
        {
          "internalType": "string",
          "name": "name",
          "type": "string"
        }
      ],
      "stateMutability": "view",
      "type": "function"
    }
  ],
  "bytecode": "0x608060405234801561001057600080fd5b50610fe2806100206000396000f3fe608060405234801561001057600080fd5b50600436106100625760003560e01c80630cbc3dc41461006757806371c85b8d146100835780638076e02b146100b3578063a87430ba146100d1578063bff6de2014610102578063e8d857b01461011e575b600080fd5b610081600480360381019061007c919061093f565b610151565b005b61009d600480360381019061009891906109ea565b6102f6565b6040516100aa9190610bfd565b60405180910390f35b6100bb610561565b6040516100c89190610c2e565b60405180910390f35b6100eb60048036038101906100e691906109ea565b610567565b6040516100f9929190610ca2565b60405180910390f35b61011c6004803603810190610117919061093f565b610633565b005b61013860048036038101906101339190610cfe565b610717565b6040516101489493929190610d2b565b60405180910390f35b3360008060008373ffffffffffffffffffffffffffffffffffffffff1673ffffffffffffffffffffffffffffffffffffffff16815260200190815260200160002060010180546101a090610da6565b9050116101e2576040517f08c379a00000000000000000000000000000000000000000000000000000000081526004016101d990610e4a565b60405180910390fd5b600060025490506000600160008381526020019081526020016000209050818160000181905550338160010160006101000a81548173ffffffffffffffffffffffffffffffffffffffff021916908373ffffffffffffffffffffffffffffffffffffffff160217905550848482600201919061025f9291906107ef565b5042816003018190555060008060003373ffffffffffffffffffffffffffffffffffffffff1673ffffffffffffffffffffffffffffffffffffffff168152602001908152602001600020905080600201839080600181540180825580915050600190039060005260206000200160009091909190915055600260008154809291906102e990610e99565b9190505550505050505050565b606060008060008473ffffffffffffffffffffffffffffffffffffffff1673ffffffffffffffffffffffffffffffffffffffff16815260200190815260200160002060020180548060200260200160405190810160405280929190818152602001828054801561038557602002820191906000526020600020905b815481526020019060010190808311610371575b505050505090506000815167ffffffffffffffff8111156103a9576103a8610ee2565b5b6040519080825280602002602001820160405280156103e257816020015b6103cf610875565b8152602001906001900390816103c75790505b50905060005b8251811015610556576001600084838151811061040857610407610f11565b5b60200260200101518152602001908152602001600020604051806080016040529081600082015481526020016001820160009054906101000a900473ffffffffffffffffffffffffffffffffffffffff1673ffffffffffffffffffffffffffffffffffffffff1673ffffffffffffffffffffffffffffffffffffffff16815260200160028201805461049990610da6565b80601f01602080910402602001604051908101604052809291908181526020018280546104c590610da6565b80156105125780601f106104e757610100808354040283529160200191610512565b820191906000526020600020905b8154815290600101906020018083116104f557829003601f168201915b5050505050815260200160038201548152505082828151811061053857610537610f11565b5b6020026020010181905250808061054e90610e99565b9150506103e8565b508092505050919050565b60025481565b60006020528060005260406000206000915090508060000160009054906101000a900473ffffffffffffffffffffffffffffffffffffffff16908060010180546105b090610da6565b80601f01602080910402602001604051908101604052809291908181526020018280546105dc90610da6565b80156106295780601f106105fe57610100808354040283529160200191610629565b820191906000526020600020905b81548152906001019060200180831161060c57829003601f168201915b5050505050905082565b60008282905011610679576040517f08c379a000000000000000000000000000000000000000000000000000000000815260040161067090610f8c565b60405180910390fd5b60008060003373ffffffffffffffffffffffffffffffffffffffff1673ffffffffffffffffffffffffffffffffffffffff1681526020019081526020016000209050338160000160006101000a81548173ffffffffffffffffffffffffffffffffffffffff021916908373ffffffffffffffffffffffffffffffffffffffff16021790555082828260010191906107119291906107ef565b50505050565b60016020528060005260406000206000915090508060000154908060010160009054906101000a900473ffffffffffffffffffffffffffffffffffffffff169080600201805461076690610da6565b80601f016020809104026020016040519081016040528092919081815260200182805461079290610da6565b80156107df5780601f106107b4576101008083540402835291602001916107df565b820191906000526020600020905b8154815290600101906020018083116107c257829003601f168201915b5050505050908060030154905084565b8280546107fb90610da6565b90600052602060002090601f01602090048101928261081d5760008555610864565b82601f1061083657803560ff1916838001178555610864565b82800160010185558215610864579182015b82811115610863578235825591602001919060010190610848565b5b50905061087191906108b3565b5090565b604051806080016040528060008152602001600073ffffffffffffffffffffffffffffffffffffffff16815260200160608152602001600081525090565b5b808211156108cc5760008160009055506001016108b4565b5090565b600080fd5b600080fd5b600080fd5b600080fd5b600080fd5b60008083601f8401126108ff576108fe6108da565b5b8235905067ffffffffffffffff81111561091c5761091b6108df565b5b602083019150836001820283011115610938576109376108e4565b5b9250929050565b60008060208385031215610956576109556108d0565b5b600083013567ffffffffffffffff811115610974576109736108d5565b5b610980858286016108e9565b92509250509250929050565b600073ffffffffffffffffffffffffffffffffffffffff82169050919050565b60006109b78261098c565b9050919050565b6109c7816109ac565b81146109d257600080fd5b50565b6000813590506109e4816109be565b92915050565b600060208284031215610a00576109ff6108d0565b5b6000610a0e848285016109d5565b91505092915050565b600081519050919050565b600082825260208201905092915050565b6000819050602082019050919050565b6000819050919050565b610a5681610a43565b82525050565b610a65816109ac565b82525050565b600081519050919050565b600082825260208201905092915050565b60005b83811015610aa5578082015181840152602081019050610a8a565b83811115610ab4576000848401525b50505050565b6000601f19601f8301169050919050565b6000610ad682610a6b565b610ae08185610a76565b9350610af0818560208601610a87565b610af981610aba565b840191505092915050565b6000608083016000830151610b1c6000860182610a4d565b506020830151610b2f6020860182610a5c565b5060408301518482036040860152610b478282610acb565b9150506060830151610b5c6060860182610a4d565b508091505092915050565b6000610b738383610b04565b905092915050565b6000602082019050919050565b6000610b9382610a17565b610b9d8185610a22565b935083602082028501610baf85610a33565b8060005b85811015610beb5784840389528151610bcc8582610b67565b9450610bd783610b7b565b925060208a01995050600181019050610bb3565b50829750879550505050505092915050565b60006020820190508181036000830152610c178184610b88565b905092915050565b610c2881610a43565b82525050565b6000602082019050610c436000830184610c1f565b92915050565b610c52816109ac565b82525050565b600082825260208201905092915050565b6000610c7482610a6b565b610c7e8185610c58565b9350610c8e818560208601610a87565b610c9781610aba565b840191505092915050565b6000604082019050610cb76000830185610c49565b8181036020830152610cc98184610c69565b90509392505050565b610cdb81610a43565b8114610ce657600080fd5b50565b600081359050610cf881610cd2565b92915050565b600060208284031215610d1457610d136108d0565b5b6000610d2284828501610ce9565b91505092915050565b6000608082019050610d406000830187610c1f565b610d4d6020830186610c49565b8181036040830152610d5f8185610c69565b9050610d6e6060830184610c1f565b95945050505050565b7f4e487b7100000000000000000000000000000000000000000000000000000000600052602260045260246000fd5b60006002820490506001821680610dbe57607f821691505b60208210811415610dd257610dd1610d77565b5b50919050565b7f546869732077616c6c657420646f6573206e6f742062656c6f6e6720746f206160008201527f6e79206163636f756e742e000000000000000000000000000000000000000000602082015250565b6000610e34602b83610c58565b9150610e3f82610dd8565b604082019050919050565b60006020820190508181036000830152610e6381610e27565b9050919050565b7f4e487b7100000000000000000000000000000000000000000000000000000000600052601160045260246000fd5b6000610ea482610a43565b91507fffffffffffffffffffffffffffffffffffffffffffffffffffffffffffffffff821415610ed757610ed6610e6a565b5b600182019050919050565b7f4e487b7100000000000000000000000000000000000000000000000000000000600052604160045260246000fd5b7f4e487b7100000000000000000000000000000000000000000000000000000000600052603260045260246000fd5b7f4e616d652063616e6e6f7420626520616e20656d70747920737472696e670000600082015250565b6000610f76601e83610c58565b9150610f8182610f40565b602082019050919050565b60006020820190508181036000830152610fa581610f69565b905091905056fea2646970667358221220b0429f627c2823ac7c3fd69f7558c034ab304dc69419906d7e0850af060ca98764736f6c63430008090033",
  "linkReferences": {},
  "deployedLinkReferences": {}
}